:107000000C941A390C94EC3A0C942C390C942C39BD
:107010000C942C390C942C390C942C390C942C395C
:107020000C942C390C942C390C942C390C942C394C
:107030000C942C390C942C390C942C390C942C393C
:107040000C94193B0C942C390C94953D0C94C33D35
:107050000C942C390C942C390C942C390C942C391C
:107060000C942C390C942C392E007061676553698F
:107070007A6520616E6420626C6F636B506F732061
:107080006469666665720A00546F206D616E7920CE
:107090006461746120666F72207061676553697AFC
:1070A000650A00626C6F636B4C656E20646966668E
:1070B0006572207061676553697A650A0057726F5F
:1070C0006E67204D73674964210A005265747261CE
:1070D0006E736D69742C207265666C617368210A29
:1070E00000476F74206F74686572206D7367547900
:1070F00070650A0052656365697665206669726D20
:10710000776172650A00476F74204342206D736790
:107110000A005761697420666F72204342206D73C4
:10712000670A00545820626F6F746C6F61646572F7
:107130002073657175656E63650A0054696D656FCE
:1071400075740A005374617274204170700A0042B1
:107150006F6F746C6F616465722073656C665570D7
:1071600064617465210A00435243206661696C2C96
:10717000205265626F6F740A00435243204F4B0ADE
:107180000070616765416464722065786365656459
:107190007320666C617368206D656D6F72790A008B
:1071A00053776974636820746F203130306B206DC1
:1071B0006F64650A000A41736B53696E204F544136
:1071C00020426F6F746C6F616465722056302E3789
:1071D0002E300A0A0053776974636820746F203177
:1071E000306B206D6F64650A000B08105B11F81599
:1071F00047191D1A1C1BC71C001DB221B623EA002B
:107200002E012E0206030D04E905CA063D070C0BEC
:10721000060D210E650F5010C81193120315341678
:10722000011730181819161B432156250026112D59
:10723000353EC30011241FBECFEFD8E0DEBFCDBF67
:1072400021E0A0E0B1E001C01D92A13DB207E1F74D
:107250000E944F3E0C94F53E0C94003898E09B0140
:10726000660F771F87FD616037FF04C021E2622748
:1072700020E17227880F915091F7CB0108959FB7B5
:10728000F89485B7282F216025BF826085BF9FBFF6
:1072900085B5826085BD16BCEEE6F0E08081816038
:1072A000808381E08DBB82E08093690008950F9315
:1072B0001F93CF93DF9361382FE672078105910505
:1072C00040F081E891E7DF91CF911F910F910C94ED
:1072D000403EF894F999FECF8B0123E0FB01209307
:1072E0005700E89507B600FCFDCF9A0120583F4FA4
:1072F000DA01C1E0A8014A1B5B0BDC91FA01EA0F3D
:10730000FB1F11961C911197012F10E0102F0027E1
:107310000D0F111D0801C0935700E8951124129616
:10732000A217B30751F725E0FB0120935700E8951A
:1073300007B600FCFDCF81E180935700E895789473
:10734000DF91CF911F910F910895CF93DF9380919B
:1073500002018823B1F1F894109202014091950145
:10736000409359019091960186E7892780935A01AD
:10737000E6E9F1E0CBE5D1E0A1E5B1E022E080E093
:10738000241790F49191945230819327999339EF77
:10739000320F333030F43C9181E0931380E093134B
:1073A00003C02F5F1196ECCF30E0F901E75AFE4F92
:1073B000D901AB56BE4F2C9190915B0192279083DF
:1073C0007894DF91CF910895DC0111968C911197FB
:1073D00096E7982711969C93119712962C911297E5
:1073E00082E03C91E82FF0E0EA0FFB1F831730F4B6
:1073F00094523081932790838F5FF3CF80818227CF
:107400008083F89460E0CD010E94AA3C78940895AE
:10741000CF93DF93CDB7DEB72B970FB6F894DEBFCF
:107420000FBECDBFFC018AE0898381818A8380E819
:107430008B8382E08C83A6E5B1E08C918D831196DD
:107440008C9111978E8312968C918F83848188877B
:107450008581898786818A876B87CE0101960E9404
:10746000E4392B960FB6F894DEBF0FBECDBFDF9187
:10747000CF910895CF93DF93C0E0D0E06FEF7FEF1F
:10748000FE0184910E942E39BC012196CE3FFFE679
:10749000DF07B1F780E00E942E39BC0180E00E9436
:1074A0002E39AC01FE012591349181E0421753073A
:1074B00009F080E0DF91CF910895611103C0FC01D4
:1074C000228125FD0C94083A0895CF93DF93CDB720
:1074D000DEB765970FB6F894DEBF0FBECDBF83E26F
:1074E00091E70E94403E84E189831A821B8280E1F9
:1074F0008C83E6E5F1E080818D8381818E838281BA
:107500008F83188619861A861B86E8E4F1E080814D
:107510008C8781818D8782818E8783818F8784810B
:10752000888B8581898B86818A8B87818B8B8085EF
:107530008C8B81858D8BCE0101960E94E4396596F6
:107540000FB6F894DEBF0FBECDBFDF91CF91089587
:10755000FC0190E0941701F15C9A20E030E02E17D6
:107560003F0749F0AFECB7E01197F1F700C000001A
:107570002F5F3F4FF4CF5C9820E030E026173707AD
:1075800049F0AFECB7E01197F1F700C000002F5FB2
:107590003F4FF4CF9F5FDECF08950E943A3A882391
:1075A00021F089E791E70C94403E41E061E070E012
:1075B00080ED97E00E94A83A87E691E70E94403E5E
:1075C000A8959EE088E10FB6F894A8958093600096
:1075D0000FBE90936000FFCF1F920F920FB60F92D5
:1075E00011242F933F934F935F936F937F938F93C8
:1075F0009F93AF93BF93EF93FF93F89485E991E046
:107600000E94DE3C882319F081E080930201789487
:10761000FF91EF91BF91AF919F918F917F916F916A
:107620005F914F913F912F910F900FBE0F901F9040
:1076300018951F920F920FB60F9211248F939F935C
:1076400016BC809100019091010101969093010177
:10765000809300019F918F910F900FBE0F901F900C
:107660001895ECEFFFE6859194918131974499F458
:107670008FE491E70E94403E8FEF99EF0197F1F779
:1076800000C000004AE062E370E082E390E00E9404
:10769000A83A0E94803F84E491E70E94403EEFEFC9
:1076A000F9EF3197F1F700C000005C98F89485B7C6
:1076B000982F916095BF8D7F85BFE0E0F0E0099441
:1076C00080910001909101018133954740F08BE357
:1076D00091E70E94403E0E94CD3A0C94313B0895C0
:1076E00082E191E70E94403E109201011092000158
:1076F0000E94603B0E94A5398823D1F380915C01F0
:107700008B3C49F486E091E70E94403E60E089E5C9
:1077100091E00C945D3A60E889E591E00E94083AB6
:10772000E7CFCF93DF93CDB7DEB7C058D1090FB6FF
:10773000F894DEBF0FBECDBFE0905A011092010158
:107740001092000184EF90E70E94403E812C912C22
:10775000540100E010E0F12C0E94603B0E94A5392A
:107760008823D1F380915C018A3C19F081EE90E787
:1077700032C080915A01E81210C0F1100EC081147D
:107780009104A104B10449F081E0881A9108A1088C
:10779000B1088BEC90E70E94403E80915A018E1513
:1077A00050F485E78E1520F48FE78E0D843718F49A
:1077B0008DEB90E749C0F1101EC08091630190E00D
:1077C000982F882720916401820F911D80389105A0
:1077D00029F083EA90E70E94403EBECF0091590114
:1077E00010E00B501109A80165E671E0CE01019689
:1077F0000E94EC3E1DC04091590150E04950510992
:107800006A01C00ED11E81E8C816D10418F088E8BC
:1078100090E71AC063E671E081E090E08C0F9D1F55
:10782000800F911F0E94EC3E81E08601F81294CFF8
:1078300080915B01803219F0FF24F3948DCF0038E2
:10784000110529F08AE690E70E94403E84CF88E641
:1078500090E70E94403E5C9AC501B40127E0660FA4
:10786000771F881F991F2A95D1F7AE014F5F5F4F91
:107870000E9457398FEF881A980AA80AB80A1092FE
:107880000101109200015C98E0905A0160E089E5E6
:1078900091E00E945D3A5FCF8EBD0DB407FEFDCF33
:1078A0008EB508952A982C99FECF0E944C3C2A9AB6
:1078B0000895FF920F931F93CF93DF93F62E072F18
:1078C000142F2A982C99FECF80640E944C3CCF2D17
:1078D000D02FCE01810F911D8C01C017D10721F04F
:1078E00089910E944C3CF9CF2A9ADF91CF911F9148
:1078F0000F91FF900895FF920F931F93CF93DF9303
:10790000F82E092F142F2A982C99FECF862F806CE1
:107910000E944C3CCF2DD02FCE01810F911D8C01A8
:10792000C017D10729F080E00E944C3C8993F8CF22
:107930002A9ADF91CF911F910F91FF9008952A9875
:107940002C99FECF862B0E944C3C80E00E944C3C40
:107950002A9A0895CF93DF93EC0186E30E94523C6C
:107960008AE30E94523C8BE30E94523C8FEC97E0EA
:107970000197F1F700C0000048814F5FBE018FE31F
:107980000E94593C8AE30E94523C85E30E94523C8B
:10799000C8EC60EC85E30E949F3C8D3061F060ECA8
:1079A00085E30E949F3C833131F49AE19A95F1F787
:1079B00000C0C15071F7DF91CF910895CF93DF934D
:1079C000EC0160EC8BE30E949F3C982F9F7749F07D
:1079D00087FD07C060E88FE30E949F3C88838D335A
:1079E00010F0188217C0482F6FE3CE0101960E9455
:1079F0007B3C60E88FE30E949F3C60E88FE30E943D
:107A00009F3C982F9F7790935501881F8827881F48
:107A1000809353018AE30E94523C86E30E94523CC9
:107A200084E30E94523C8CE30E94523C8881DF91A7
:107A3000CF910895CF93C62F2A982C99FECF0E94FC
:107A40004C3C8C2F0E944C3C2A9ACF9108950F9366
:107A50001F93CF93DF93182FF894229A239A249898
:107A6000259A52982A9A2D9A2B9880E58CBD2A9AAD
:107A700080E58A95F1F72A9890E59A95F1F72A9A88
:107A8000E8E7EA95F1F780E30E94523C87EC90E04A
:107A90000197F1F700C00000CFEFD1E7FE0131966A
:107AA0006491FE0184910E941A3D2296F2E7C3334D
:107AB000DF07A1F711110AC083E30E94523C8FE354
:107AC0009FE10197F1F700C0000010C0C9EED1E7B7
:107AD0000FEF11E7FE0131966491FE0184910E943F
:107AE0001A3D22960C171D07A9F7E6CF84E30E94E2
:107AF000523C60EC85E30E949F3C8D30B9F760EC0E
:107B00008EE30E941A3D84E30E94523C8CE30E9463
:107B1000523C8FE697E10197F1F700C0000078949E
:107B2000DF91CF911F910F9108951F920F920FB681
:107B30000F9211242F938F939F93EF93FF93809134
:107B4000C0009091C6008871E0910501EF5FEF7170
:107B500020910401E21739F0E0930501F0E0E85FBD
:107B6000FE4F908301C082E090910301892B8093A6
:107B70000301FF91EF919F918F912F910F900FBE75
:107B80000F901F9018951F920F920FB60F9211240D
:107B90008F939F93EF93FF9390910701809106013C
:107BA000981769F0E0910601EF5FEF71E09306012D
:107BB000F0E0E85DFE4F80818093C60005C08091B3
:107BC000C1008F7D8093C100FF91EF919F918F91B4
:107BD0000F900FBE0F901F901895109207011092F2
:107BE0000601109205011092040197FF04C022E0E3
:107BF0002093C0009F779093C5008093C40088E9CC
:107C00008093C10086E08093C200089590910501A1
:107C100080910401981781F0E0910401EF5FEF710A
:107C2000E0930401F0E0E85FFE4F80819091030152
:107C30001092030190E0089580E091E00895909102
:107C400007019F5F9F71209106019217E1F3E92FD1
:107C5000F0E0E85DFE4F8083909307018091C100C2
:107C600080628093C1000895CF93DF93EC018991E6
:107C7000882319F00E941F3EFACFDF91CF9108951B
:107C8000CF93DF93FC018491EF012196882321F0AB
:107C90000E941F3EFE01F7CFDF91CF910895C4B738
:107CA000C3FBCC27C0F914BEA8950FB6F894A895CD
:107CB00080916000886180936000109260000FBE28
:107CC0002098289A2AE12A95F1F700C0549A189B27
:107CD00033C0C11131C040E06CE271E08CE291E050
:107CE0000E94A83A8FEF94E32CE08150904020400E
:107CF000E1F700C0000047E066E970E086E990E047
:107D00000E94A83A8FEF94E32CE0815090402040ED
:107D1000E1F700C0000040E06CE271E08CE291E02D
:107D20000E94A83A8FEF99E628E1815090402040C8
:107D3000E1F700C0000007C041E068EC70E089E1B5
:107D400090E00E94A83A0E943F3985ED91E70E9499
:107D5000403E80E00E94273D88E090E00E94ED3D9B
:107D600085EB91E70E94403E189B07C0C11105C0FA
:107D70000E943A3A81110E94313B41E068EC70E088
:107D800089E190E00E94A83A43E050E06CEF7FE781
:107D900086E591E00E94E33E4AE050E062EF7FE733
:107DA00088E491E00E94E33E0E94653A0E94703BA5
:107DB00080EA91E70E94403E81E00E94273D0E94B8
:107DC000703B0E94913BFB01DC0102C005900D92CB
:107DD00041505040D8F70895FB01DC0102C00190EA
:0E7DE0000D9241505040D8F70895F894FFCF0F
:107F0000F8945C9A80E090E743E051E065E0FC0182
:107F100040935700E89507B600FCFDCF20E030E025
:107F2000EC01D057FE01E20FF31FA591B491FC01C3
:107F3000E20FF31F0D0150935700E89511242E5FB7
:107F40003F4F2038310571F7FC0160935700E895E9
:107F500007B600FCFDCF80589F4F8115FFE79F07B4
:107F6000B1F6E0E8FFE683E080935700E89507B6B6
:107F700000FCFDCF81E180935700E8955C989EE07E
:107F800088E10FB6F894A895809360000FBE909397
:047F90006000FFCFBF
:027FF000F1029C
:0A7FF200555753373339383039330F
:037FFC000B69DC32
:040000030000700089
:00000001FF
